:1000000026C040C03FC03EC03DC056C13BC03AC004
:1000100039C038C037C036C035C034C033C0000026
:10002000000037000000000038000000000036002B
:10003000020202020202020202020102040810206D
:100040002004100801020000040000000000112438
:100050001FBECFE5D2E0DEBFCDBF10E0A0E6B0E02E
:10006000ECEFF5E002C005900D92A236B107D9F78A
:1000700020E0A2E6B0E001C01D92A437B207E1F78C
:1000800065D1BAC2BDCF823089F018F4813051F009
:100090000895833019F0843009F008958CB58F7D70
:1000A0008CBD08958AB58F778ABD08958AB58F7DF6
:1000B000FBCFCF93DF93282F30E0F901EC5BFF4FAC
:1000C0008491F901E65CFF4FD491F901E05DFF4FA7
:1000D000C491CC2399F08111D6DFEC2FF0E0EE0F24
:1000E000FF1FE65DFF4FA591B491EC91ED2381E0F8
:1000F00090E009F480E0DF91CF91089580E090E0F6
:10010000FACF1F93CF93DF93282F30E0F901EC5BF8
:10011000FF4F8491F901E65CFF4FD491F901E05D56
:10012000FF4FC491CC23A1F0162F8111ACDFEC2F2F
:10013000F0E0EE0FFF1FEC5DFF4FA591B4918FB77C
:10014000F894EC91111108C0D095DE23DC938FBF99
:10015000DF91CF911F910895DE2BF8CFE4E4F0E01A
:10016000E491E230C1F048F4E13081F060E08038A1
:1001700091050CF061E080E0C4CFE33089F0E43019
:10018000A9F79CB590629CBD8BBD08959AB5906807
:100190009ABD89BD08959AB590629ABD88BD0895AB
:1001A0009CB590629CBD8EBD0895CF93DF9390E087
:1001B000FC01E65CFF4F2491805D9F4FFC01849120
:1001C0008823D1F090E0880F991FFC01E25EFF4F79
:1001D000A591B491FC01EC5DFF4FC591D4916111E3
:1001E0000EC09FB7F8948C91E22FE0958E238C93EC
:1001F0002881E223E8839FBFDF91CF9108958FB7D5
:10020000F894EC91E22BEC938FBFF6CF3FB7F894C4
:100210008091630090916400A0916500B0916600A8
:1002200022B708B601FE05C02F3F19F00196A11DA7
:10023000B11D3FBFBA2FA92F982F8827BC01CD0130
:10024000620F711D811D911D43E0660F771F881F8E
:10025000991F4A95D1F708958F929F92AF92BF92BE
:10026000CF92DF92EF92FF924B015C01CFDF6B01E7
:100270007C01CCDF6C197D098E099F09683E7340B3
:1002800081059105B0F321E0821A9108A108B10817
:1002900088EEC80E83E0D81EE11CF11C8114910485
:1002A000A104B10431F7FF90EF90DF90CF90BF90A1
:1002B000AF909F908F9008951F920F920FB60F925C
:1002C00011242F933F938F939F93AF93BF9380916C
:1002D000670090916800A0916900B0916A00309128
:1002E000620026E0230F2D3758F50296A11DB11D9F
:1002F000209362008093670090936800A093690048
:10030000B0936A008091630090916400A0916500B1
:10031000B09166000196A11DB11D8093630090937A
:100320006400A0936500B0936600BF91AF919F9168
:100330008F913F912F910F900FBE0F901F901895A6
:1003400029E8230F0396A11DB11DD2CF78948AB559
:1003500082608ABD8AB581608ABD83B7826083BFAF
:1003600083B7816083BF89B7826089BF80B78260AD
:1003700080BF80B7816080BF329A319A3098379AB7
:100380008CB580648CBD61E080E00FDF61E081E0CE
:100390000CDF60E082E009DF60E083E006DF61E01F
:1003A00081E0AFDE90E080E011D18093730064E6DD
:1003B00070E080E090E050DFC0E0D0E011E005E0C8
:1003C0008AE0F82E6091730090E080E007D164E647
:1003D00070E080E090E040DF809160008130A9F41F
:1003E0002FB7F8948091670090916800A091690000
:1003F000B0916A002FBF80936F0090937000A0931C
:100400007100B0937200109260002FB7F894809141
:10041000670090916800A0916900B0916A002FBFB9
:1004200080936B0090936C00A0936D00B0936E006E
:1004300082E03FDE892B21F568EC70E080E090E0FF
:100440000BDF80916B0090916C00A0916D00B091DA
:100450006E0080936F0090937000A0937100B09332
:10046000720080917300853028F4809173008F5F53
:1004700080937300809173008A3011F4109373009D
:1004800083E017DE892BE1F468EC70E080E090E017
:10049000E3DE80916B0090916C00A0916D00B091B3
:1004A0006E0080936F0090937000A0937100B093E2
:1004B0007200809173008A3009F03FC0009373008E
:1004C00080917300833009F465C008F041C0813029
:1004D00009F44DC0823009F454C080916B009091B2
:1004E0006C00A0916D00B0916E0040916F00509132
:1004F00070006091710070917200841B950BA60BC7
:10050000B70B81329F4BA240B10590F080916B00F8
:1005100090916C00A0916D00B0916E0080936F007F
:1005200090937000A0937100B0937200F0927300EA
:10053000209709F447CF64DD45CF80917300823066
:1005400008F4BECF80917300815080937300B8CFC0
:10055000853091F140F18A3009F0BFCF61E080E051
:1005600024DE60E080E0CDDD60E081E02DC061E070
:1005700081E0C7DD61E080E018DE82E390E0EEDD3F
:10058000ACCF61E081E0BDDD61E080E00EDE84E6BD
:1005900090E0F5CF61E081E0B4DD61E080E005DE70
:1005A00086E990E0ECCF61E081E0ABDD61E080E0E6
:1005B000FCDD88EC90E0E3CF61E081E0A2DD61E06A
:1005C00080E0F3DD61E080E09CDD87CFE199FECF44
:1005D0009FBB8EBBE09A99278DB30895262FE19992
:1005E000FECF1CBA9FBB8EBB2DBB0FB6F894E29A10
:0C05F000E19A0FBE01960895F894FFCF29
:0205FC000100FC
:00000001FF
